:020000000C945E
:100002004C000C9400000C9400000C9400000C9422
:1000120000000C9400000C9400000C9400000C945E
:1000220000000C9400000C9400000C9400000C944E
:1000320000000C94BD010C9400000C9400000C9480
:100042001C010C9400000C9400000C9400000C9411
:1000520000000C9400000C9400000C9400000C941E
:1000620000000C9400000C9400000C9400000C940E
:1000720000000C9400000C940000000000003F06F9
:100082005B4F666D7D077F6F040003007C000A00F2
:10009200070280000000F894EE27EFBBF1E0F5BF05
:1000A200E5BF8DE0A2E0BB27ED938A95E9F780E0FA
:1000B20094E0A0E0B1E0ED930197E9F7EAE8F0E01F
:1000C20085919591009761F0A591B5910590159054
:1000D200BF01F00105900D920197E1F7FB01F0CF0E
:1000E200E0E0EEBBEFEFEDBFE4E0EEBFC0E0D2E058
:1000F2000C947B00E0E8E0936100E0E0E0936100B3
:10010200EFEFE1B9E2B9E0E0E4B9EFEFE5B9E7B961
:10011200E8B9EAB9E0E0EBB962D06FD078941A9905
:100122004424442011F41A9B01C005C0E62D49D194
:100132006E2EE1E04E2E6620E1F418990CC046D1F5
:10014200A4EFB1E0B3D1A0910102AC3320F0E0E022
:10015200E093010241D119990BC03ED1A4EFB1E065
:10016200A5D1A0910202A83118F0E0E0E0930202CA
:100172001FC0189910C0E0910402EF5FE0930402DF
:10018200A4EFB1E093D1A0910402AC3320F0E0E0FF
:10019200E093040227D119990BC024D1A4EFB1E056
:1001A20085D1A0910302A83118F0E0E0E0930302A8
:1001B2001B993324332011F41B9B01C007C0E0912B
:1001C2000602FFD0E0930602E1E03E2EA091060275
:1001D200A13011F45E9A01C05E98A1CFFFCFE2E098
:1001E200E4BDE4E0E5BDE0E0E6BDEFEFE7BDE0E061
:1001F200E8BDE2E0E0936E000895E0E0E093800065
:10020200ECE0E0938100E0E0E0938500E09384007D
:10021200E0938700E0938600EAE7E0938900E2E159
:10022200E0938800E0E0E0938B00E0938A00E2E054
:10023200E0936F0008950A921A92FA926A937A935F
:100242008A939A93AA93BA93EA93FA93EFB7EA93AB
:10025200E0E0E2B9E8B9A2E3B0E081D06620A9F516
:10026200C7D029F4A0910002C9D0E1E02CC0E2304D
:10027200A0E0FA0729F4A0910002C9D0E2E023C06D
:10028200E330A0E0FA0729F4A0910102B7D0E4E03C
:100292001AC0E430A0E0FA0729F4A0910102B7D015
:1002A200E8E011C0E530A0E0FA0729F4A0910202CB
:1002B200A5D0E0E108C0E630A0E0FA0729F4A09159
:1002C2000202A5D0E0E2E8B934C092D029F4A091AC
:1002D200050294D0E1E02CC0E230A0E0FA0729F454
:1002E200A091050294D0E2E023C0E330A0E0FA0737
:1002F20029F4A091040282D0E4E01AC0E430A0E024
:10030200FA0729F4A091040282D0E8E011C0E53096
:10031200A0E0FA0729F4A091030270D0E0E108C03E
:10032200E630A0E0FA0729F4A091030270D0E0E2DF
:10033200E8B9A72DB82DE7E0F0E09CD031967E2EEB
:100342008F2EE991EFBFF991E991B991A991999114
:10035200899179916991F99019900990189564D0D1
:100362009D0100E010E00217130718F40F5F1F4F02
:10037200FACF5FD024960895AA93EA93EFB7EA934F
:10038200E0910002EF5FE0930002A0910002AC3323
:1003920020F01CD0E0E0E0930002A0910102AC3317
:1003A20020F01AD0E0E0E0930102A0910202A8310D
:1003B20018F0E0E0E0930202E991EFBFE991A99120
:1003C2001895EE23E1E009F0EE270895E09101028D
:1003D200EF5FE09301020895E0910202EF5FE09384
:1003E20002020895E0910302EF5FE0930302089591
:1003F200E72DF82DE130A0E0FA070895BB27EAE0E7
:10040200F0E038D0E95FFD4FE081E2B90895B0E055
:10041200EAE0F0E02AD0DF01EAE0F0E02BD0E95F89
:10042200FD4FE081E2B908953A932A931A930A9311
:1004320008953B812A81198108810895F195E195FA
:10044200F04008950024112490E1AA0FBB1F001C64
:10045200111C0E1A1F0A18F40E0E1F1E01C0A160F5
:100462009A9599F7FD01D001089512D0EBDF0EF4B1
:10047200E5DF0895E894B7FF04C0B195A195B040B7
:100482006894F7FDDBDFDEDFFD010EF4D7DF0895B0
:10049200E894F7FF02C0D2DF6894B7FF06C0B195B7
:1004A200A195B04000F8039400FA0895109639F02F
:1004B200A89580ED97E00197F1F71197C9F7089594
:00000001FF
